{
  "transactions": [
    {
      "hash": "0x5bf10115b71f0c13ad9e7488294c925a804e64fcf56e48fce2a46893057b055d",
      "transactionType": "CALL",
      "contractName": null,
      "contractAddress": "0x603067937be01a88e5bd848fd4930a9b28da8fe6",
      "function": "setSupportedChains(uint32[],address[])",
      "arguments": [
        "[11155111, 84532, 11155420, 5003, 421614]",
        "[0xfCeE63FC08D18A63e069536586Da11e32B49000B, 0x603067937be01a88e5Bd848FD4930a9b28da8fE6, 0x603067937be01a88e5Bd848FD4930a9b28da8fE6, 0x14F50e6BeC9cE288b1De41A161F2e698C7EA485a, 0x603067937be01a88e5Bd848FD4930a9b28da8fE6]"
      ],
      "transaction": {
        "from": "0xf7b50f96e0a3e6a5e81613036cd97993aca7ec34",
        "to": "0x603067937be01a88e5bd848fd4930a9b28da8fe6",
        "gas": "0x55395",
        "value": "0x0",
        "input": "0x89b3c7820000000000000000000000000000000000000000000000000000000000000040000000000000000000000000000000000000000000000000000000000000010000000000000000000000000000000000000000000000000000000000000000050000000000000000000000000000000000000000000000000000000000aa36a70000000000000000000000000000000000000000000000000000000000014a340000000000000000000000000000000000000000000000000000000000aa37dc000000000000000000000000000000000000000000000000000000000000138b0000000000000000000000000000000000000000000000000000000000066eee0000000000000000000000000000000000000000000000000000000000000005000000000000000000000000fcee63fc08d18a63e069536586da11e32b49000b000000000000000000000000603067937be01a88e5bd848fd4930a9b28da8fe6000000000000000000000000603067937be01a88e5bd848fd4930a9b28da8fe600000000000000000000000014f50e6bec9ce288b1de41a161f2e698c7ea485a000000000000000000000000603067937be01a88e5bd848fd4930a9b28da8fe6",
        "nonce": "0x1",
        "chainId": "0x13882"
      },
      "additionalContracts": [],
      "isFixedGasLimit": false
    }
  ],
  "receipts": [
    {
      "status": "0x1",
      "cumulativeGasUsed": "0x3db36",
      "logs": [
        {
          "address": "0x0000000000000000000000000000000000001010",
          "topics": [
            "0x4dfe1bbbcf077ddc3e01291eea2d5c70c2b422b415d95645b9adcfd678cb1d63",
            "0x0000000000000000000000000000000000000000000000000000000000001010",
            "0x000000000000000000000000f7b50f96e0a3e6a5e81613036cd97993aca7ec34",
            "0x0000000000000000000000006dc2dd54f24979ec26212794c71afefed722280c"
          ],
          "data": "0x000000000000000000000000000000000000000000000000002ce4a5dbd385b6000000000000000000000000000000000000000000000000452108f9cfb4988000000000000000000000000000000000000000000000085574ec393148b54bab00000000000000000000000000000000000000000000000044f42453f3e112ca00000000000000000000000000000000000000000000085575191dd72488d161",
          "blockHash": "0xfea12a58d2e79745e620742a0d571f5e809120d094b08c7450d4e906b54e9003",
          "blockNumber": "0x1739eb0",
          "transactionHash": "0x5bf10115b71f0c13ad9e7488294c925a804e64fcf56e48fce2a46893057b055d",
          "transactionIndex": "0x0",
          "logIndex": "0x0",
          "removed": false
        }
      ],
      "logsBloom": "0x00000000000000000000000000000000000000000000000000000000000000000000000000000000000000000000000000008000000000000000000000000000000000000000000000000000000000800000000000000000000100080000000000000000000000000000000000000000000000000000000080000000000000020000000000000000000000000040000000000000000000000000000000000002200000000000000008000000000008000000000000000000000000000000004000000000000000000001000000000000000000000000000000100000000000000000000000000000000000000000000000000000000000000000000000100000",
      "type": "0x0",
      "transactionHash": "0x5bf10115b71f0c13ad9e7488294c925a804e64fcf56e48fce2a46893057b055d",
      "transactionIndex": "0x0",
      "blockHash": "0xfea12a58d2e79745e620742a0d571f5e809120d094b08c7450d4e906b54e9003",
      "blockNumber": "0x1739eb0",
      "gasUsed": "0x3db36",
      "effectiveGasPrice": "0xba43b7400",
      "from": "0xf7b50f96e0a3e6a5e81613036cd97993aca7ec34",
      "to": "0x603067937be01a88e5bd848fd4930a9b28da8fe6",
      "contractAddress": null
    }
  ],
  "libraries": [],
  "pending": [],
  "returns": {},
  "timestamp": 1753473342,
  "chain": 80002,
  "commit": "dd850ad"
}