{
  "transactions": [
    {
      "hash": "0xfa0d251d21975f50b79490b3387ee5dac1fbdba6a22920f02234c9c82ee3448e",
      "transactionType": "CALL",
      "contractName": null,
      "contractAddress": "0x603067937be01a88e5bd848fd4930a9b28da8fe6",
      "function": "setSupportedChains(uint32[],address[])",
      "arguments": [
        "[11155111, 11155420, 5003, 80002, 421614]",
        "[0xfCeE63FC08D18A63e069536586Da11e32B49000B, 0x603067937be01a88e5Bd848FD4930a9b28da8fE6, 0x14F50e6BeC9cE288b1De41A161F2e698C7EA485a, 0x603067937be01a88e5Bd848FD4930a9b28da8fE6, 0x603067937be01a88e5Bd848FD4930a9b28da8fE6]"
      ],
      "transaction": {
        "from": "0xf7b50f96e0a3e6a5e81613036cd97993aca7ec34",
        "to": "0x603067937be01a88e5bd848fd4930a9b28da8fe6",
        "gas": "0x55395",
        "value": "0x0",
        "input": "0x89b3c7820000000000000000000000000000000000000000000000000000000000000040000000000000000000000000000000000000000000000000000000000000010000000000000000000000000000000000000000000000000000000000000000050000000000000000000000000000000000000000000000000000000000aa36a70000000000000000000000000000000000000000000000000000000000aa37dc000000000000000000000000000000000000000000000000000000000000138b00000000000000000000000000000000000000000000000000000000000138820000000000000000000000000000000000000000000000000000000000066eee0000000000000000000000000000000000000000000000000000000000000005000000000000000000000000fcee63fc08d18a63e069536586da11e32b49000b000000000000000000000000603067937be01a88e5bd848fd4930a9b28da8fe600000000000000000000000014f50e6bec9ce288b1de41a161f2e698c7ea485a000000000000000000000000603067937be01a88e5bd848fd4930a9b28da8fe6000000000000000000000000603067937be01a88e5bd848fd4930a9b28da8fe6",
        "nonce": "0x1",
        "chainId": "0x14a34"
      },
      "additionalContracts": [],
      "isFixedGasLimit": false
    }
  ],
  "receipts": [
    {
      "status": "0x1",
      "cumulativeGasUsed": "0x3fd362",
      "logs": [],
      "logsBloom": "0x00000000000000000000000000000000000000000000000000000000000000000000000000000000000000000000000000000000000000000000000000000000000000000000000000000000000000000000000000000000000000000000000000000000000000000000000000000000000000000000000000000000000000000000000000000000000000000000000000000000000000000000000000000000000000000000000000000000000000000000000000000000000000000000000000000000000000000000000000000000000000000000000000000000000000000000000000000000000000000000000000000000000000000000000000000000",
      "type": "0x0",
      "transactionHash": "0xfa0d251d21975f50b79490b3387ee5dac1fbdba6a22920f02234c9c82ee3448e",
      "transactionIndex": "0xa",
      "blockHash": "0x75afb5712ae3802125419d9b5734cbe2f271dcf3b6917183370e35457810ffaf",
      "blockNumber": "0x1b84101",
      "gasUsed": "0x3db36",
      "effectiveGasPrice": "0xf4276",
      "from": "0xf7b50f96e0a3e6a5e81613036cd97993aca7ec34",
      "to": "0x603067937be01a88e5bd848fd4930a9b28da8fe6",
      "contractAddress": null,
      "l1BaseFeeScalar": "0x44d",
      "l1BlobBaseFee": "0x1",
      "l1BlobBaseFeeScalar": "0xa118b",
      "l1Fee": "0x88",
      "l1GasPrice": "0xb",
      "l1GasUsed": "0x9fd"
    }
  ],
  "libraries": [],
  "pending": [],
  "returns": {},
  "timestamp": 1753473247,
  "chain": 84532,
  "commit": "dd850ad"
}