{
  "transactions": [
    {
      "hash": "0xf3f00814b21ad381bddda4bb6fb4bab5fd9b35421e0c14cdad9e3b375c197ba9",
      "transactionType": "CALL",
      "contractName": null,
      "contractAddress": "0x603067937be01a88e5bd848fd4930a9b28da8fe6",
      "function": "setSupportedChains(uint32[],address[])",
      "arguments": [
        "[11155111, 84532, 11155420, 5003, 80002]",
        "[0xfCeE63FC08D18A63e069536586Da11e32B49000B, 0x603067937be01a88e5Bd848FD4930a9b28da8fE6, 0x603067937be01a88e5Bd848FD4930a9b28da8fE6, 0x14F50e6BeC9cE288b1De41A161F2e698C7EA485a, 0x603067937be01a88e5Bd848FD4930a9b28da8fE6]"
      ],
      "transaction": {
        "from": "0xf7b50f96e0a3e6a5e81613036cd97993aca7ec34",
        "to": "0x603067937be01a88e5bd848fd4930a9b28da8fe6",
        "gas": "0x5137c",
        "value": "0x0",
        "input": "0x89b3c7820000000000000000000000000000000000000000000000000000000000000040000000000000000000000000000000000000000000000000000000000000010000000000000000000000000000000000000000000000000000000000000000050000000000000000000000000000000000000000000000000000000000aa36a70000000000000000000000000000000000000000000000000000000000014a340000000000000000000000000000000000000000000000000000000000aa37dc000000000000000000000000000000000000000000000000000000000000138b00000000000000000000000000000000000000000000000000000000000138820000000000000000000000000000000000000000000000000000000000000005000000000000000000000000fcee63fc08d18a63e069536586da11e32b49000b000000000000000000000000603067937be01a88e5bd848fd4930a9b28da8fe6000000000000000000000000603067937be01a88e5bd848fd4930a9b28da8fe600000000000000000000000014f50e6bec9ce288b1de41a161f2e698c7ea485a000000000000000000000000603067937be01a88e5bd848fd4930a9b28da8fe6",
        "nonce": "0x1",
        "chainId": "0x66eee"
      },
      "additionalContracts": [],
      "isFixedGasLimit": false
    }
  ],
  "receipts": [
    {
      "status": "0x1",
      "cumulativeGasUsed": "0xadb89",
      "logs": [],
      "logsBloom": "0x00000000000000000000000000000000000000000000000000000000000000000000000000000000000000000000000000000000000000000000000000000000000000000000000000000000000000000000000000000000000000000000000000000000000000000000000000000000000000000000000000000000000000000000000000000000000000000000000000000000000000000000000000000000000000000000000000000000000000000000000000000000000000000000000000000000000000000000000000000000000000000000000000000000000000000000000000000000000000000000000000000000000000000000000000000000",
      "type": "0x0",
      "transactionHash": "0xf3f00814b21ad381bddda4bb6fb4bab5fd9b35421e0c14cdad9e3b375c197ba9",
      "transactionIndex": "0x3",
      "blockHash": "0x4467a456e4969c67e6d249fab7f86509c93e81265951ff576359c3be0a4c9f16",
      "blockNumber": "0xa91655d",
      "gasUsed": "0x3db36",
      "effectiveGasPrice": "0x5f5e100",
      "from": "0xf7b50f96e0a3e6a5e81613036cd97993aca7ec34",
      "to": "0x603067937be01a88e5bd848fd4930a9b28da8fe6",
      "contractAddress": null,
      "gasUsedForL1": "0x0",
      "l1BlockNumber": "0x86e945",
      "timeboosted": false
    }
  ],
  "libraries": [],
  "pending": [],
  "returns": {},
  "timestamp": 1753473366,
  "chain": 421614,
  "commit": "dd850ad"
}