{
  "transactions": [
    {
      "hash": "0x2453a2f5edd002d9c1f3cbb7efaabfc03556d4533c97879b4e518447a340e293",
      "transactionType": "CALL",
      "contractName": null,
      "contractAddress": "0x603067937be01a88e5bd848fd4930a9b28da8fe6",
      "function": "setSupportedChains(uint32[],address[])",
      "arguments": [
        "[11155111, 84532, 5003, 80002, 421614]",
        "[0xfCeE63FC08D18A63e069536586Da11e32B49000B, 0x603067937be01a88e5Bd848FD4930a9b28da8fE6, 0x14F50e6BeC9cE288b1De41A161F2e698C7EA485a, 0x603067937be01a88e5Bd848FD4930a9b28da8fE6, 0x603067937be01a88e5Bd848FD4930a9b28da8fE6]"
      ],
      "transaction": {
        "from": "0xf7b50f96e0a3e6a5e81613036cd97993aca7ec34",
        "to": "0x603067937be01a88e5bd848fd4930a9b28da8fe6",
        "gas": "0x55395",
        "value": "0x0",
        "input": "0x89b3c7820000000000000000000000000000000000000000000000000000000000000040000000000000000000000000000000000000000000000000000000000000010000000000000000000000000000000000000000000000000000000000000000050000000000000000000000000000000000000000000000000000000000aa36a70000000000000000000000000000000000000000000000000000000000014a34000000000000000000000000000000000000000000000000000000000000138b00000000000000000000000000000000000000000000000000000000000138820000000000000000000000000000000000000000000000000000000000066eee0000000000000000000000000000000000000000000000000000000000000005000000000000000000000000fcee63fc08d18a63e069536586da11e32b49000b000000000000000000000000603067937be01a88e5bd848fd4930a9b28da8fe600000000000000000000000014f50e6bec9ce288b1de41a161f2e698c7ea485a000000000000000000000000603067937be01a88e5bd848fd4930a9b28da8fe6000000000000000000000000603067937be01a88e5bd848fd4930a9b28da8fe6",
        "nonce": "0x1",
        "chainId": "0xaa37dc"
      },
      "additionalContracts": [],
      "isFixedGasLimit": false
    }
  ],
  "receipts": [
    {
      "status": "0x1",
      "cumulativeGasUsed": "0x97da2",
      "logs": [],
      "logsBloom": "0x00000000000000000000000000000000000000000000000000000000000000000000000000000000000000000000000000000000000000000000000000000000000000000000000000000000000000000000000000000000000000000000000000000000000000000000000000000000000000000000000000000000000000000000000000000000000000000000000000000000000000000000000000000000000000000000000000000000000000000000000000000000000000000000000000000000000000000000000000000000000000000000000000000000000000000000000000000000000000000000000000000000000000000000000000000000",
      "type": "0x0",
      "transactionHash": "0x2453a2f5edd002d9c1f3cbb7efaabfc03556d4533c97879b4e518447a340e293",
      "transactionIndex": "0x5",
      "blockHash": "0xe9f823c0e14fb83a0e4bde95678513ba6dd9959fa41a607ac1a0d71b9797c187",
      "blockNumber": "0x1d682a9",
      "gasUsed": "0x3db36",
      "effectiveGasPrice": "0xf433a",
      "from": "0xf7b50f96e0a3e6a5e81613036cd97993aca7ec34",
      "to": "0x603067937be01a88e5bd848fd4930a9b28da8fe6",
      "contractAddress": null,
      "l1BaseFeeScalar": "0x1db0",
      "l1BlobBaseFee": "0x1",
      "l1BlobBaseFeeScalar": "0xd2730",
      "l1Fee": "0x174",
      "l1GasPrice": "0xc",
      "l1GasUsed": "0xa0a"
    }
  ],
  "libraries": [],
  "pending": [],
  "returns": {},
  "timestamp": 1753473277,
  "chain": 11155420,
  "commit": "dd850ad"
}