{
  "transactions": [
    {
      "hash": "0x5cf0dc2c235eb5565382bd2a4397e689864df716efa4d207be0333d0c82cc3d5",
      "transactionType": "CALL",
      "contractName": null,
      "contractAddress": "0x14f50e6bec9ce288b1de41a161f2e698c7ea485a",
      "function": "setSupportedChains(uint32[],address[])",
      "arguments": [
        "[11155111, 84532, 11155420, 80002, 421614]",
        "[0xfCeE63FC08D18A63e069536586Da11e32B49000B, 0x603067937be01a88e5Bd848FD4930a9b28da8fE6, 0x603067937be01a88e5Bd848FD4930a9b28da8fE6, 0x603067937be01a88e5Bd848FD4930a9b28da8fE6, 0x603067937be01a88e5Bd848FD4930a9b28da8fE6]"
      ],
      "transaction": {
        "from": "0xf7b50f96e0a3e6a5e81613036cd97993aca7ec34",
        "to": "0x14f50e6bec9ce288b1de41a161f2e698c7ea485a",
        "gas": "0x72b14639",
        "value": "0x0",
        "input": "0x89b3c7820000000000000000000000000000000000000000000000000000000000000040000000000000000000000000000000000000000000000000000000000000010000000000000000000000000000000000000000000000000000000000000000050000000000000000000000000000000000000000000000000000000000aa36a70000000000000000000000000000000000000000000000000000000000014a340000000000000000000000000000000000000000000000000000000000aa37dc00000000000000000000000000000000000000000000000000000000000138820000000000000000000000000000000000000000000000000000000000066eee0000000000000000000000000000000000000000000000000000000000000005000000000000000000000000fcee63fc08d18a63e069536586da11e32b49000b000000000000000000000000603067937be01a88e5bd848fd4930a9b28da8fe6000000000000000000000000603067937be01a88e5bd848fd4930a9b28da8fe6000000000000000000000000603067937be01a88e5bd848fd4930a9b28da8fe6000000000000000000000000603067937be01a88e5bd848fd4930a9b28da8fe6",
        "nonce": "0x2",
        "chainId": "0x138b"
      },
      "additionalContracts": [],
      "isFixedGasLimit": false
    }
  ],
  "receipts": [
    {
      "status": "0x1",
      "cumulativeGasUsed": "0x48f1d82c",
      "logs": [],
      "logsBloom": "0x00000000000000000000000000000000000000000000000000000000000000000000000000000000000000000000000000000000000000000000000000000000000000000000000000000000000000000000000000000000000000000000000000000000000000000000000000000000000000000000000000000000000000000000000000000000000000000000000000000000000000000000000000000000000000000000000000000000000000000000000000000000000000000000000000000000000000000000000000000000000000000000000000000000000000000000000000000000000000000000000000000000000000000000000000000000",
      "type": "0x0",
      "transactionHash": "0x5cf0dc2c235eb5565382bd2a4397e689864df716efa4d207be0333d0c82cc3d5",
      "transactionIndex": "0x1",
      "blockHash": "0x96527f9d84658a7b835ea5e76b2bb278ae149e40fa1838551b8de03b3b4a35f9",
      "blockNumber": "0x18c2f1f",
      "gasUsed": "0x48f12133",
      "effectiveGasPrice": "0x132b3a0",
      "from": "0xf7b50f96e0a3e6a5e81613036cd97993aca7ec34",
      "to": "0x14f50e6bec9ce288b1de41a161f2e698c7ea485a",
      "contractAddress": null,
      "l1Fee": "0x2de3e7",
      "l1FeeScalar": "0.01",
      "l1GasPrice": "0xc",
      "l1GasUsed": "0x1438",
      "tokenRatio": "0x12ea"
    }
  ],
  "libraries": [],
  "pending": [],
  "returns": {},
  "timestamp": 1753473314,
  "chain": 5003,
  "commit": "dd850ad"
}